00                                                   2123298631000134EDUARDO SANTANA ALVES         MELODIVO            A ABILIO MACHADO 1934                             ALIPIO DE MELO      30820622BELO HORIZONTE      MG  3134744455                                                            10022023                                                            *
10123298631000134000000000000000000000000000000000000CNDMATERIAL ELETRICO LTDA               AV ABILIO MACHADO 1934                            ALIPIO DE MELO      30820622BELO HORIZONTE      MG  313474445547423001515                                                                                                                                               *
40123298631000134000000000000000204332364982712202201PEDRO HENRIQUE FREIRE BARBARA                                         942504800050106220520024441412527122022L 01022023   302022023N        000000000000000000000000000000000000000009191000000000000000N000000000000000000001571094369000000000000000000000000000000012500                                       *
90999999999999999999999999999999999999999999999999999                                                                                                                                                                                                                                                                                                                  *