00                                                   1123298631000134EDUARDO SANTANA ALVES         MELODIVO            A ABILIO MACHADO 1934                             ALIPIO DE MELO      30820622BELO HORIZONTE      MG  3134744455                                                            2023011152 080220231               121595762000158                  *
10123298631000134000000000000000000000000000000000000CNDMATERIAL ELETRICO LTDA               AV ABILIO MACHADO 1934                            ALIPIO DE MELO      30820622BELO HORIZONTE      MG  3134744455N4742300N300151501152100     000000000023928000000000000000000000000000000000000000000000                000000000000000000000000000000000000000000000    *
30123298631000134               128411382500207202201ANGELITA FULANETE CARVALHO                                             0001000126001372700239020720221403198103912000000000149334000000000000000    000000000000000000000000000000000000000000000000000000000000                                                                                                  *
30123298631000134               129554670910106201901FERNANDA RODRIGUES REIS                                                0001000107004961600104010620192412197704211000000000152830000000000000000    000000000000000000000000000000000000000000000000000000000000                                                                                                  *
30123298631000134               160884837422001202101AMANDA APARECIDA GOMES DOS SANTOS                                      0001000117135885000060200120212004200104141000000000137872000000000000000    000000000000000000000000000000000000000000000000000000000000                                                                                                  *
30123298631000134               161413925560903202201DAIANE RODRIGUES PESSOA                                                0001000125116813103677090320222708199105211000000000220450000000000000000    000000000000000000000000000000000000000000000000000000000000                                                                                                  *
30123298631000134               203803354381704201701GABRIEL ALVES MEDINA                                                   0001000096564198700040170420170904199905211000000000216643000000000000000    000000000000000000000000000000000000000000000000000000000000                                                                                                  *
30123298631000134               204332364982712202201PEDRO HENRIQUE FREIRE BARBARA                                          0001000132942504800050271220222205200204141000000000133276000000000000000    000000000000000000000000000000000000000000000000000000000000                                                                                                  *
30123298631000134               207075855751810202101GISLAINE CRISTINA VALENTE DA SILVA ARAUJO                              0001000122006774100134181020212103198704110000000000175000000000000000000    000000000000000000000000000000000000000000000000000000000000                                                                                                  *
30123298631000134               209381918740109202001FERNANDO LEONARDO SANTANA PINTO                                        0001000113048540900020010920202601199005211000000000203811000000000000000    000000000000000000000000000000000000000000000000000000000000                                                                                                  *
90999999999999999999999999999999999999999999999999999                                                                                                                                                                                                                                                                                                                  *